:030000000201D228
:0100030032CA
:03000B000201559A
:0100130032BA
:01001B0032B2
:0100230032AA
:03002B0002017E51
:10002E00C00078B10000D8FCD00022C000C0017919
:10003E002D78A6D8FED9FADAF6D001D00022D293C6
:10004E0012002EC29322A2E792B5A2E692B4A2E5C6
:10005E0092B3A2E492B212004C12002EA2E392B519
:10006E00A2E292B4A2E192B3A2E092B212004C22AA
:10007E00D291020054C291020054C293C2927433C0
:10008E0012008374331200837432120083742812A8
:10009E000083740C1200837401120083C0027A0272
:1000AE00120039D00222E493600612007EA380F67D
:1000BE002244404480020083C0E0E8C4540F443020
:1000CE0012007EE8540F443012007ED0E0224D4FD5
:1000DE004E0054554500574544005448550046526D
:1000EE0049005341540053554E0078787820787863
:1000FE003A78783A78782020202000312020204D40
:10010E004F4E2030303A30303A30300032202020FE
:10011E005341542030303A30303A303000202020D5
:10012E002020202020202020202020202000E589B3
:10013E0054F04401F589758CEA758AE875F4EA7510
:10014E00F2E8D2A9D28C22C0E0C0D0E501B40102FF
:10015E00B2B7D0D0D0E03275C80075CDA975CC9AA3
:10016E0075CBA975CA9AE4F530F531D2ADD2CA2253
:10017E00C2CFB2B6C0E0C0D00530E5307002053156
:10018E00E530B4E83AE531B40335D200B28CE4F58B
:10019E0030F531E5322401D4B46022E5332401D4A4
:1001AE00B46017E5342401D4B4240CE5352401D40D
:1001BE00B40701E4F535E4F534E4F533E4F532D073
:1001CE00D0D0E03275817F12013C12016575E600D8
:1001DE0075E70075CE0075CF00D2AF120088C0E073
:1001EE007401141200C1D0E0C083C082C0E0900040
:1001FE00F81200B4D0E0D082D083D2007400F501A2
:10020E00753200753300753400753500753600751E
:10021E003700753800753900753A00753B00753C2E
:10022E0000753D050205D520A005C2CA0202BA20FE
:10023E00A3061206900203AB3000E9C200C0E074C0
:10024E000B141200C1D0E0C000A8321200C6D000BC
:10025E00C0E07408141200C1D0E0C000A833120030
:10026E00C6D000C0E07405141200C1D0E0C000A8D2
:10027E00341200C6D000C0E07401141200C1D0E0E8
:10028E00C083C082C0E0C0F0C0D0E53575F004A4D4
:10029E009000DC2582F582E43583F5831200B4D01C
:1002AE00D0D0F0D0E0D082D08302023230A017D26C
:1002BE00CA02024920C40FC0027A7D120039D00250
:1002CE0020C40302038A20A70FC0027A7D120039D0
:1002DE00D00220A70302036920A40FC0027A7D1268
:1002EE000039D00220A40302034820A1BFC0027A25
:1002FE007D120039D00220A1B3E5352401D4B40714
:10030E0001E4F535C0E07401141200C1D0E0C083E1
:10031E00C082C0E0C0F0C0D0E53575F004A49000F6
:10032E00DC2582F582E43583F5831200B4D0D0D07B
:10033E00F0D0E0D082D0830202BAE5342401D4B4E6
:10034E002401E4F534C0E07405141200C1D0E0C0FD
:10035E0000A8341200C6D0000202BAE5332401D43C
:10036E00B46001E4F533C0E07408141200C1D0E0AB
:10037E00C000A8331200C6D0000202BAE532240132
:10038E00D4B46001E4F532C0E0740B141200C1D095
:10039E00E0C000A8321200C6D0000202BA30A35745
:1003AE00C0E07401141200C1D0E0C083C082C0E06E
:1003BE0090012B1200B4D0E0D082D083C0E0740143
:1003CE00141200BFD0E0C083C082C0E090012B1297
:1003DE0000B4D0E0D082D083C0E07401141200C10A
:1003EE00D0E0C083C082C0E09000F81200B4D0E02C
:1003FE00D082D08302024930844B20A70FC0027AEC
:10040E007D120039D00220A7030204EE20A40FC0F3
:10041E00027A7D120039D00220A4030204CD20A15D
:10042E000FC0027A7D120039D00220A10302048C83
:10043E000203AB20C40FC0027A7D120039D0022015
:10044E00C4030205B420A70FC0027A7D120039D072
:10045E000220A70302059320A40FC0027A7D12008A
:10046E0039D00220A40302057220A10FC0027A7DAA
:10047E00120039D00220A1030205300203ABE53988
:10048E002401D4B40501E4F539C0E074051412005A
:10049E00C1D0E0C083C082C0E0C0F0C0D0E53975E5
:1004AE00F004A49000DC2582F582E43583F58312F6
:1004BE0000B4D0D0D0F0D0E0D082D0830203ABE530
:1004CE00382401D4B42401E4F538C0E074091412C0
:1004DE0000C1D0E0C000A8381200C6D0000203ABA5
:1004EE00E5372401D4B46001E4F537C0E0740C1490
:1004FE001200C1D0E0C000A8371200C6D00002031F
:10050E00ABE5362401D4B46001E4F536C0E0740FD7
:10051E00141200C1D0E0C000A8361200C6D00002EE
:10052E0003ABE53D2401D4B407027405F53DC0E0EC
:10053E007405141200BFD0E0C083C082C0E0C0F0CA
:10054E00C0D0E53D75F004A49000DC2582F582E470
:10055E003583F5831200B4D0D0D0F0D0E0D082D065
:10056E00830203ABE53C2401D4B42401E4F53CC082
:10057E00E07409141200BFD0E0C000A83C1200C6FF
:10058E00D0000203ABE53B2401D4B46001E4F53B9B
:10059E00C0E0740C141200BFD0E0C000A83B1200E3
:1005AE00C6D0000203ABE53A2401D4B46001E4F5F1
:1005BE003AC0E0740F141200BFD0E0C000A83A1287
:1005CE0000C6D0000203AB20A616E536B53211E503
:1005DE0037B5330CE538B53407E539B53502801C2F
:1005EE0020A516E53AB53211E53BB5330CE53CB521
:1005FE003407E53DB5350280030202357401F5017D
:10060E00C0E0740B141200C1D0E0C000A83212007A
:10061E00C6D000C0E07408141200C1D0E0C000A81B
:10062E00331200C6D000C0E07405141200C1D0E031
:10063E00C000A8341200C6D000C0E074011412002D
:10064E00C1D0E0C083C082C0E0C0F0C0D0E5357537
:10065E00F004A49000DC2582F582E43583F5831244
:10066E0000B4D0D0D0F0D0E0D082D083208491C01E
:10067E00027A7D120039D0022084857400F50102C1
:10068E000235C0E07401141200C1D0E0C083C082F4
:10069E00C0E09001091200B4D0E0D082D083C0E057
:1006AE007401141200BFD0E0C083C082C0E090017C
:1006BE001A1200B4D0E0D082D083C0E074051412B8
:1006CE0000C1D0E0C083C082C0E0C0F0C0D0E53928
:1006DE0075F004A49000DC2582F582E43583F58361
:1006EE001200B4D0D0D0F0D0E0D082D083C0E0746D
:1006FE0009141200C1D0E0C000A8381200C6D00004
:10070E00C0E0740C141200C1D0E0C000A837120073
:10071E00C6D000C0E0740F141200C1D0E0C000A813
:10072E00361200C6D000C0E07405141200BFD0E02F
:10073E00C083C082C0E0C0F0C0D0E53D75F004A417
:10074E009000DC2582F582E43583F5831200B4D067
:10075E00D0D0F0D0E0D082D083C0E0740914120063
:10076E00BFD0E0C000A83C1200C6D000C0E0740CA0
:10077E00141200BFD0E0C000A83B1200C6D000C0CB
:10078E00E0740F141200BFD0E0C000A83A1200C6E9
:03079E00D0002266
:00000001FF
